:020000040000FA
:1000000098F20020A9030000E9030000CD020000DF
:10001000ED030000EF030000F1030000000000000A
:100020000000000000000000000000000D020000C1
:10003000F50300000000000069020000B72900007D
:10004000FB030000FB030000FB030000FB030000B8
:10005000FB030000FB030000FB030000FB030000A8
:10006000FB030000FB030000FB030000FB03000098
:10007000FB030000FB030000FB030000FB03000088
:10008000FB030000FB030000FB030000FB03000078
:10009000FB030000FB030000FB030000FB03000068
:1000A000FB030000FB030000FB030000FB03000058
:1000B000FB030000FB030000FB030000FB03000048
:1000C000FB030000FB030000FB030000FB03000038
:1000D000FB030000FB030000FB030000FB03000028
:1000E000FB030000FB030000FB030000FB03000018
:1000F000FB030000FB030000FB030000FB03000008
:10010000FB030000FB030000FB030000FB030000F7
:10011000FB030000810B0000FB030000FB03000059
:10012000FB030000FB030000FB030000FB030000D7
:10013000FB030000FB030000FB030000FB030000C7
:10014000FB030000FB0300009FD9000059D9000009
:10015000FB030000FB030000FB030000FB030000A7
:10016000FB030000FB030000FB030000FB03000097
:10017000FB030000FB030000FB030000FB03000087
:10018000FB030000FB030000FB030000FB03000077
:10019000FB030000FB030000FB030000FB03000067
:1001A000FB030000FB030000FB030000FB03000057
:1001B000FB030000FB030000FB030000FB03000047
:1001C000FB030000FB030000FB030000FB03000037
:1001D000FB030000FB030000FB030000FB03000027
:1001E000FB030000FB030000FB030000FB03000017
:1001F000FB030000DFF810D00DF03CFD0048004785
:100200003B060000AFF3008098F200202C4B1968E9
:100210000868B0E8F04F80F30988BFF36F8F4FF0A4
:10022000000080F311887047000000000848006853
:10023000006880F308884FF0000080F3148862B6ED
:1002400061B6BFF34F8FBFF36F8F00DF00BF00BFFA
:1002500008ED00E0DFF80C00016841F47001016076
:10026000704700BF88ED00E0EFF30980BFF36F8FA8
:10027000134B1A681EF0100F08BF20ED108A20E9FA
:10028000F04F106009B44FF0500080F31188BFF3B5
:100290004F8FBFF36F8F01F0D7FD4FF0000080F359
:1002A000118809BC19680868B0E8F04F1EF0100FFB
:1002B00008BFB0EC108A80F30988BFF36F8F7047D6
:1002C00024010020EFF305807047000004207146F0
:1002D000084202D0EFF3098001E0EFF30880714695
:1002E000004A10478539000010B503F028FA294A62
:1002F0004FF080439060D3F8101201F007010229FB
:1003000003D002F10C0050F82100D3F8201201F0C4
:100310000F01491CB0FBF1F01F491060084449006F
:10032000B0FBF1F0506010BD1C48016841F4700151
:1003300001601B48C16C21F00F0141F00801C1644C
:100340004FF08040D0F8981241F48021C0F8981204
:10035000D0F8081241F00201C0F808121149D1F892
:10036000042102F0F732C1F80421D1F8082102F08B
:10037000F732C1F80821D0F8081221F00201C0F8C4
:1003800008124FF04020D0F8401121F0F001C0F8E1
:10039000401170470000002020A1070088ED00E018
:1003A00000C000400010044014484FF059010160A3
:1003B0004FF0160101604FF088010160104841685C
:1003C00041F4804141600F48416841F002014160C1
:1003D000416841F0040141600B48804707484FF0F5
:1003E0000001016009480047FEE7FEE7FEE7FEE77F
:1003F000FEE7FEE7FEE7FEE7FEE7FEE7000100405E
:10040000000200400070004029030000F5010000D8
:1004100000B587B0BE480590BE4803906FF07F409E
:100420000490BDA00DF0E4FC002108460CF07FFE16
:10043000BF4AC04900208DE8070005AB04AA03A904
:10044000BD4804F014FBBC4804F043FBBA4804F078
:1004500043FB0621422000F04BF9422000F03DF919
:100460000621432000F044F9432000F036F900F063
:10047000A9FA002001F027FD07B000BD38B5002221
:10048000AE49AF4803F088FBAE4C0A21A06800F0EB
:100490000FFFADA00DF0ACFCACA00DF0A9FCBAA014
:1004A0000DF0A6FCA9A00DF0A3FC0022A349A448CE
:1004B00003F072FB00F0DAFB03F080FB4FF08042A8
:1004C000D2F8F401C0B201280ED1BE48102141601B
:1004D0004168C906FCD5012042F8E40F106840F4D9
:1004E00080601060906A2060352000F0F6F80023EC
:1004F0001A461946A06800F011FE032000906423FC
:100500000022B149B1A00DF07EF8BDE838400020CE
:1005100001F0D9BC2DE9F041592016218822840729
:10052000C4F80001C4F80011C4F80021D4F8003167
:10053000002BF5D04FF04025D5F8400120F0F00019
:10054000C5F84001012003F0F9F9012003F0B3F8E8
:10055000A04803F0B3F91120C4F83402D4F8F40130
:10056000C0B201285CD0D4F8100240F48070C4F806
:100570001002D4F8200220F0F00040F03000C4F85F
:100580002002E06A20F0030040F48270E062924EA4
:10059000304603F083F8914F384603F07FF89048D7
:1005A00003F07CF800221146304603F031F84FF496
:1005B000FC020021384603F02BF8FFF795FEE06BB4
:1005C00020F47F00E063E06B40F4CC00E063206B3C
:1005D00040F04C502063206C40F04C502064606C24
:1005E00040F003006064606D7E49084360654FF031
:1005F000A870C5F82801286820F07C502860606B3E
:1006000080B26063606B7849084360630020C4F87F
:100610000001BDE8F0414FF4E131744803F030BA15
:10062000D4F8000240F48020C4F80002D4F810028C
:1006300020F48070C4F81002A3E71CB5FFF76AFF2E
:1006400003220021012000F097FC3E4CA06010B96D
:1006500067A00DF0CDFB002209210A2000F08CFCE0
:10066000606010B968A00DF0C3FB00240220CDE942
:100670000004234664226AA16B4801F033FA032088
:10068000CDE9000400234FF4AF7268A1694801F07E
:1006900029FA012002F0F7FC012002F031FF0020CE
:1006A00002F03BFC02F040FE63A00DF0A1FB01F064
:1006B000DBFCFEE7502080F31188BFF34F8FBFF3C0
:1006C0006F8FFEE77047502080F31188BFF34F8F84
:1006D000BFF36F8FFEE702F046BE00F01F0201215C
:1006E00091404009800000F1E020C0F800117047FF
:1006F0000907090E002806DA00F00F0000F1E020DB
:1007000080F8141D704700F1E02080F80014704755
:10071000C0A80001C0A800534C6F63616C20495011
:100720003A3139322E3136382E302E38330A000025
:10073000A1D00000EDD6000050030020AD0C000059
:10074000F8E00000340000200A0000002B2D2D2DC1
:100750002D2D2D2D2D2D2D2D2D2D2D2D2D2D2D2DC9
:100760002D2D2D2D2D2D2D2D2D2D2D2D2D2D2D2DB9
:100770002D2D2D2D2D2D2D2D2D2D2D2D2D2D2D2DA9
:100780002D2D2D2D2D2B0A007C20202020202020F7
:1007900020202020202020202020202020484944E4
:1007A000204B6579626F617264205461736B202005
:1007B0002020202020202020202020202020202039
:1007C000207C0A0000000C40B30D0000484944554D
:1007D0005342000000B0710B103D805705FE0B0026
:1007E0009B3C8042333303000000EEEE00000740E4
:1007F0005553425F73656D615F6E6F745F637265C1
:1008000061746564210A00005553425F7175657516
:10081000655F6E6F745F63726561746564210A0061
:100820005573625461736B007D040000546370540F
:1008300061736B00110400004672656552544F539A
:10084000206973207374617274696E67202E2E2E76
:100850000A00000030B58FB0044614225EA105A83E
:100860000DF04AF961A001AD0FC885E80F0063A043
:100870000DF0BEFA0AA920460AF037FE054666A02A
:100880000DF0B6FA002D17D066A00DF0B1FA6DA0EC
:100890000DF0AEFA20460AF0CFFF5FA00DF0A8FAE7
:1008A0006FA00DF0A5FA0A980CF00AFB5AA00DF003
:1008B0009FFA00200FB030BD0A98D0B1217AC1B99B
:1008C0000DAA0BA90CF00DFB0B9807226BA1C01C05
:1008D0000DF04AF9002570B101A80DF031F902467A
:1008E000002301A9204600950AF047FE0A980CF063
:1008F000E7FA0120DEE70B9810F8011B8DF83010A5
:100900000DF041F98DF8310005A80DF019F90246F6
:10091000002305A9204600950AF02FFE5948002320
:100920000A220CA9006800F0F9FBDFE738B5564D44
:100930006421286800F0BCFC54A00DF059FA54A0C2
:100940000DF056FA61A00DF053FA51A00DF050FAD7
:100950000022114610200AF069FC002304461A46C2
:100960001946286800F0DAFB002C29D0502200211B
:1009700020460AF0B1FC18B163A00DF039FA38BD79
:10098000FF2120460AF0C1FC65A00DF031FA69464E
:1009900020460AF0CDFC00980028F5D01EA00DF0EE
:1009A00027FA0098FFF756FF0028FAD163A00DF050
:1009B0001FFA00980AF07CFC17A00DF019FAE3E783
:1009C00066A0DAE708B502200090C8230022694932
:1009D00069A00CF018FE08BD436F6D6D616E645F19
:1009E00056657269667921210000000057726F6EAA
:1009F000675F436F6D6D616E64212100576169749B
:100A000020666F722054435020646174612020205E
:100A1000202020202E2E2E00205B4F4B5D202E2EDE
:100A20002E0A000054435020436F6E6E656374209D
:100A30004661696C65642020202020202E2E2E0A1D
:100A400000000000436C6F73652054435020636FB7
:100A50006E6E656374696F6E202020202E2E2E002E
:100A600044656C6574652054435020446174612072
:100A700062756620202020202E2E2E00434F4D4DE3
:100A8000414E4400380000203C0000200A000000D5
:100A90002B2D2D2D2D2D2D2D2D2D2D2D2D2D2D2D88
:100AA0002D2D2D2D2D2D2D2D2D2D2D2D2D2D2D2D76
:100AB0002D2D2D2D2D2D2D2D2D2D2D2D2D2D2D2D66
:100AC0002D2D2D2D2D2D2D2D2D2B0A007C20202080
:100AD0002020202020202020202020202020202016
:100AE000205443502F49502053657276657220542C
:100AF00061736B2020202020202020202020202017
:100B000020202020207C0A0063616E206E6F7420FC
:100B100062696E64206E6574636F6E6E0000000023
:100B20005761697420666F722054435020636F6E62
:100B30006E656374696F6E202E2E2E0044656C65A1
:100B400074652054435020636F6E6E656374696FE3
:100B50006E202020202E2E2E0000000063616E20CB
:100B60006E6F7420637265617465206E6574636F67
:100B70006E6E00002D0900005443504543484F005D
:100B80002DE9F041A64D6C68286900F00F0660075A
:100B90000BD5042068606869C007286902D040F45A
:100BA000FA6001E020F080002861E0074FF00107C3
:100BB00014D06F60F00705D0286940F4FA6028610E
:100BC00003F05AFAB00703D5286920F01000286115
:100BD000700703D5286940F4FA602861200701D521
:100BE00008206860A0073FD5002C0FDA4FF00040C6
:100BF00068608C48016841F001010160894810304B
:100C0000016841F00101016003F097F9E00304D5A8
:100C10004FF48030686003F0CAF9A00304D54FF4A4
:100C20000030686003F0FFF9600304D54FF48020C2
:100C300068607D480770200302D54FF4002068608B
:100C4000E00202D54FF480106860A00202D54FF494
:100C500000106860600202D54FF4800068602002D6
:100C600002D54FF400006860BDE8F0816C490020B7
:100C700088616C494FF41070091F086069490820A9
:100C80000C390860674A4FF408710C3211606549ED
:100C9000091D0860634941201C310860614910202A
:100CA0001431086060490120087070471CB568461F
:100CB00002F095FF9DF80000000606D49DF80100A3
:100CC0000023092808D00A2821D0002000F092F83B
:100CD000012000F08FF81CBD52499DF803000C3133
:100CE0000A1F03280DD00228F5D1086840F08000C3
:100CF00008609DF8060010600021084602F07DFFA4
:100D00001CBD086840F08000086013601CBD4548A9
:100D1000001F016841F080010160001F03601CBDDD
:100D200070B5054640480C460078002812D03FA018
:100D30000DF05EF83B48143000683F49431800222C
:100D400010469854521C082AFBDB364908201831FB
:100D50005C55086070BD30B44FF08042D2F8F43179
:100D6000DBB2012B23D1D2F8E430102403F00305C9
:100D70002B4B012D0CD05D68ED0609D55C6001257B
:100D8000C2F8E450D2F8E45045F48065C2F8E4506B
:100D9000D2F8EC5015F0060F09D0284D2D68C2F896
:100DA0000C51002542F8E45F062595605C6030BC7C
:100DB000B6E708B5224C02226946206800F002FC22
:100DC0000128F8D19DF800101EA00DF011F89DF833
:100DD00000003D38C1B20420FFF7BDFF9DF80100BF
:100DE000642110FB01F000F0A0FF00210420FFF7B8
:100DF000B2FFE0E70B4B00211B1F03EB011212684F
:100E000002F00F02824207D1064800EB0110016890
:100E100041F0020101607047491C0C29EDD3704775
:100E200000000C400C050C40320000207573625F1E
:100E3000686572650A00000000010C403400002063
:100E4000380000205468697320697320757362202C
:100E5000746872656164207265635F6461746120A7
:100E60003A202563200A000000F108014FF0FF320C
:100E7000C0E90112C16001610021016070470021D9
:100E80000161704742684A6093688B60936859605B
:100E9000916008610168491C0160704730B50C68B9
:100EA000621C02D000F1080202E0026904E01A4666
:100EB00053681D68A542FAD953684B6099608A60EF
:100EC000516008610168491C016030BDD0E9013200
:100ED00001699A60D0E901235A604A68824201D1CF
:100EE00082684A60002202610868401E0860086843
:100EF0007047000070B50D46040025D001F02EFDAE
:100F0000D4E90F20216802FB001161600021A16378
:100F10002168A1600A46D4E90F01401E00FB0121AF
:100F2000E16021464FF0FF3001F8440F487004F1B2
:100F300010008DB1FFF798FF04F12400FFF794FF34
:100F400001F028FD012070BD502080F31188BFF30F
:100F50004F8FBFF36F8FFEE721690029F0D001F0BA
:100F6000E3F80028ECD0F9494FF080500860BFF357
:100F70004F8FBFF36F8FE3E72DE9F04117460E4621
:100F8000050018D0FEB105FB06F0543001F05CFD01
:100F900004000ED004F15400BEB12060C4E90F5625
:100FA00020460121FFF7A6FF84F85070002120465B
:100FB000A164BDE8F081502080F31188BFF34F8F0A
:100FC000BFF36F8FFEE70020DFE72460E6E72DE93F
:100FD000F041856B174604460026026C82B1C7B10A
:100FE000E0680CF089FDE168206C091AE160226874
:100FF000914202D26168081AE060022F16D017E011
:101000002068A8B9606801F062F9064600206060B7
:101010000EE0A0680CF070FD216CA0680844A06090
:101020006168884204D32068A06001E005B16D1EAC
:101030006D1CA5633046BCE773B500260098846C30
:101040005CB1A26BE06B82420FD3502080F3118819
:10105000BFF34F8FBFF36F8FFEE7502080F31188EF
:10106000BFF34F8FBFF36F8FFEE7A26B82420CD2AC
:1010700094F945500A4669462046FFF7A8FF064600
:10108000681C04D06D1C84F8455030467CBD606AF5
:101090000028FAD004F1240001F046F80028F4D02A
:1010A0000126F2E72DE9F041044601F057FC94F9DE
:1010B000455004F1240610E0A06C20B10021204628
:1010C000FFF7BAFF04E0606A48B1304601F02CF83F
:1010D00008B101F09BF86D1E6DB2002DECDC4FF0F5
:1010E000FF3684F8456001F055FC01F037FC94F9B7
:1010F000445004F1100709E0206948B1384601F076
:1011000013F808B101F082F86D1E6DB2002DF3DC0A
:1011100084F84460BDE8F04101F03CBC2DE9FF4F8C
:1011200083B099468B4604004FF0000603D0BBF114
:10113000000F08D011E0502080F31188BFF34F8FCB
:10114000BFF36F8FFEE7206C38B1502080F3118819
:10115000BFF34F8FBFF36F8FFEE7B9F1020F0AD1D4
:10116000E06B012807D0502080F31188BFF34F8F28
:10117000BFF36F8FFEE701F059F8DFF8D0814FF031
:10118000000A4FF0805748B9059838B1502080F3D5
:101190001188BFF34F8FBFF36F8FFEE701F0DEFBC7
:1011A000A06BE16B884206D3B9F1020F03D005981A
:1011B00000B316B325E04A4659462046FFF707FF1D
:1011C000A16C21B149462046FFF736FF05E0616A70
:1011D00019B104F1240000F0A7FF28B1C8F800708D
:1011E000BFF34F8FBFF36F8F01F0D4FB012007B027
:1011F000BDE8F08F01F0CEFB21E0684600F0C9FFAA
:10120000012601F0C7FB00F08BFD01F0A7FB94F96C
:101210004400401C01D184F844A094F94500401CCE
:1012200001D184F845A001F0B5FB05A9684600F09E
:10123000B6FF30B12046FFF735FF00F0E2FC00209A
:10124000D5E701F08BFBA06BE16B884201D1012552
:1012500000E0002501F09EFB95B104F11000059916
:1012600000F034FF2046FFF71DFF00F0CAFC002805
:1012700094D1C8F80070BFF34F8FBFF36F8F8DE725
:101280002046FFF70FFF00F0BCFC87E710B50246D1
:1012900000210120FFF770FE041E07D000214160ED
:1012A00001600B460A46C160FFF738FF204610BDBB
:1012B0002DE9F3434FF0000583B004002E4609D01A
:1012C000206C78B1502080F31188BFF34F8FBFF3AB
:1012D0006F8FFEE7502080F31188BFF34F8FBFF36D
:1012E0006F8FFEE700F0A2FFDFF8609000274FF05D
:1012F000805848B9049838B1502080F31188BFF362
:101300004F8FBFF36F8FFEE701F028FBA06BC8B1D2
:10131000401EA063206810B901F072F86060206977
:1013200050B104F1100000F0FFFE28B1C9F80080B0
:10133000BFF34F8FBFF36F8F01F02CFB012005B07F
:10134000BDE8F083049818B175B111E004ED00E038
:101350003EB1502080F31188BFF34F8FBFF36F8FE2
:10136000FEE701F017FB5DE0684600F012FF012583
:1013700001F010FB00F0D4FC01F0F0FA94F9440005
:10138000401C01D184F8447094F94500401C01D1FF
:1013900084F8457001F0FEFA04A9684600F0FFFEEB
:1013A0000028204612D0FFF77DFE00F02AFC2046E0
:1013B00000F025FB0028A7D09EB301F0CFFA606AA9
:1013C00050B3206B0068C0F1050126E000F017FB68
:1013D000E0B1206838B901F0C1FA606800F031FF6F
:1013E000064601F0D7FA04F12400049900F06EFEDD
:1013F0002046FFF757FE00F004FC002884D1C9F80E
:101400000080BFF34F8FBFF36F8F7DE72046FFF75C
:1014100049FE00F0F6FB77E70021606800F09FFFCF
:101420009FE7FFE700208AE72DE9F0479846154639
:101430008946040003D0B9F1000F08D011E0502014
:1014400080F31188BFF34F8FBFF36F8FFEE7206CDF
:1014500038B1502080F31188BFF34F8FBFF36F8FE7
:10146000FEE7B8F1020F0AD1E06B012807D0502047
:1014700080F31188BFF34F8FBFF36F8FFEE701F04A
:10148000AEFA5020EFF3118780F31188BFF34F8F2E
:10149000BFF36F8FA06BE16B884207D3B8F1020FE7
:1014A00004D0002087F31188BDE8F08794F94560E7
:1014B000424649462046FFF78AFD701C04D0761C40
:1014C00084F845600120EDE7A06C012620B141467B
:1014D0002046FFF7B1FD06E0606A0028F2D004F173
:1014E000240000F021FE0028ECD0002DEAD02E6070
:1014F000E8E72DE9F0410D46040009D0206C78B1F1
:10150000502080F31188BFF34F8FBFF36F8FFEE73A
:10151000502080F31188BFF34F8FBFF36F8FFEE72A
:10152000206848B9606838B1502080F31188BFF353
:101530004F8FBFF36F8FFEE701F051FA5020EFF3AA
:10154000118680F31188BFF34F8FBFF36F8FA16BAC
:10155000E06B88421FD994F94500491CA163411CE6
:1015600004D0401C84F84500012015E0A06C012740
:1015700020B100212046FFF75FFD06E0606A0028E9
:10158000F2D004F1240000F0CFFD0028ECD0002DB3
:10159000EAD02F60E8E7002086F3118809E530B42F
:1015A000026C0B46002A0BD0C1681144C16044682C
:1015B000A14201D30168C16030BC18460CF09CBA4E
:1015C00030BC70472DE9F74783B08A4604004FF0DE
:1015D000000603D0BAF1000F08D011E0502080F3CC
:1015E0001188BFF34F8FBFF36F8FFEE7206C38B1C8
:1015F000502080F31188BFF34F8FBFF36F8FFEE74A
:1016000000F014FEDFF8109400274FF0805848B91E
:10161000059838B1502080F31188BFF34F8FBFF386
:101620006F8FFEE701F09AF9A56BBDB151462046D8
:10163000FFF7B5FF6D1EA563206950B104F11000DE
:1016400000F072FD28B1C9F80080BFF34F8FBFF3DF
:101650006F8F01F09FF9012006B025E7059808B1CA
:101660001EB106E001F096F927E0684600F091FD12
:10167000012601F08FF900F053FB01F06FF994F9A6
:101680004400401C01D184F8447094F94500401C8A
:1016900001D184F8457001F07DF905A9684600F094
:1016A0007EFD002820460AD0FFF7FCFC00F0A9FAD6
:1016B000204600F0A4F90028B4D00020CCE700F0C8
:1016C0009EF990B104F12400059900F0FFFC20463A
:1016D000FFF7E8FC00F095FA0028A3D1C9F80080D4
:1016E000BFF34F8FBFF36F8F9CE72046FFF7DAFC05
:1016F00000F087FA96E72DE9F74382B089460400A7
:101700004FF0000503D0B9F1000F08D011E05020D0
:1017100080F31188BFF34F8FBFF36F8FFEE7206C0C
:1017200038B1502080F31188BFF34F8FBFF36F8F14
:10173000FEE700F07BFDDFF8E08200264FF08057E7
:1017400048B9049838B1502080F31188BFF34F8F07
:10175000BFF36F8FFEE701F001F9A06BB0B149460E
:101760002046E568FFF71BFFE560606A50B104F1B1
:10177000240000F0D9FC28B1C8F80070BFF34F8FE7
:10178000BFF36F8F01F006F90120D8E5049808B186
:101790001DB106E001F0FEF827E0684600F0F9FC14
:1017A000012501F0F7F800F0BBFA01F0D7F894F941
:1017B0004400401C01D184F8446094F94500401C69
:1017C00001D184F8456001F0E5F804A9684600F00D
:1017D000E6FC002820460AD0FFF764FC00F011FA6E
:1017E000204600F00CF90028B5D00020A7E500F055
:1017F00006F990B104F12400049900F067FC20463A
:10180000FFF750FC00F0FDF90028A4D1C8F80070E3
:10181000BFF34F8FBFF36F8F9DE72046FFF742FC6A
:1018200000F0EFF997E72DE9F0479046894604006C
:1018300003D0B9F1000F08D011E0502080F31188D7
:10184000BFF34F8FBFF36F8FFEE7206C38B150208E
:1018500080F31188BFF34F8FBFF36F8FFEE701F066
:10186000BEF85020EFF3118780F31188BFF34F8F3C
:10187000BFF36F8FA66BF6B194F9445049462046EA
:10188000FFF78DFE761EA663681C04D06D1C84F8DD
:101890004450012010E020690028FAD004F1100023
:1018A00000F042FC0028F4D0B8F1000FF1D0012183
:1018B000C8F80010EDE7002087F31188F4E510B5B3
:1018C000040006D001F04AF8A46B01F063F820464A
:1018D00010BD502080F31188BFF34F8FBFF36F8F7F
:1018E000FEE74E4A002102EBC1035B68834206D14A
:1018F000002042F8310002EBC10148607047491CEA
:101900000829F0D3704710B5040006D0FFF7E9FFAF
:101910002046BDE8104001F0F0B8502080F3118857
:10192000BFF34F8FBFF36F8FFEE710B53B4B002225
:1019300053F832401CB1521C082AF9D310BD43F8A9
:10194000321003EBC201486010BD70B515460E465B
:10195000044601F003F894F944100020491C01D119
:1019600084F8440094F94510491C01D184F84500DD
:1019700001F010F8A06B28B92A46314604F1240082
:1019800000F0B9FB2046BDE87040FFF78BBB00229A
:101990000421FFF7F1BA70B50D46044600F0DEFFF2
:1019A000A06C08B9A06B08B1002401E0A564012473
:1019B00000F0F0FF204670BD10B50446806C8842F0
:1019C00001D1A06B08B1002010BD00F0C7FF0020BE
:1019D000A06400F0DFFF012010BD08B500230A4617
:1019E00069460093FFF7EEFD009808BD08B5002199
:1019F0000A4600916946FFF716FF009808BD10B52A
:101A0000044600F0ABFFA06B20B1002400F0C2FF41
:101A1000204610BD0124F9E704ED00E0800300201A
:101A20002DE9F041054600F099FFFE4EB068401CDC
:101A3000B0603068FC4F10B1706940B32DE0356084
:101A4000B068012829D1002404EB840007EB800052
:101A5000FFF70AFA641C052CF6D3F3486430FFF74D
:101A600003FAF1487830FFF7FFF9EF488C30FFF7C1
:101A7000FBF9ED48A030FFF7F7F9EB48B430FFF77A
:101A8000F3F9E948643070631430B06305E03068FE
:101A9000E96AC06A884200D83560706A0121401C3A
:101AA00070626864E86A326981401143316100EB19
:101AB000800007EB8000291DFFF7E4F900F06AFFC2
:101AC000706900280CD03068E96AC06A884207D281
:101AD000D6494FF080500860BFF34F8FBFF36F8F30
:101AE000BDE8F0812DE9FF5F8346DDE90E87994669
:101AF00016468A46900000F0A7FF05001AD05C2029
:101B000000F0A2FF040012D025630021CDE90241BC
:101B1000CDE900874B4632465146584600F079FCE5
:101B20002046FFF77DFF012004B0BDE8F09F284666
:101B300000F0E3FF4FF0FF30F6E72DE9F041B94F39
:101B40000026386B18B1B869401CB86152E0FD68D6
:101B50006D1CFD6013D1786B006838B1502080F3A4
:101B60001188BFF34F8FBFF36F8FFEE7786BB96BB0
:101B70007963B863386A401C386200F097FCB86A31
:101B8000DFF8A482854209D3786B006890B1786B46
:101B9000C068C468606885420FD2B8623868C06A9D
:101BA00000EB800158F82100012800D90126B8690E
:101BB00000B321E04FF0FF30EFE7201DFFF786F97B
:101BC000A06A18B104F11800FFF780F9E06A01215A
:101BD0003A6981401143396100EB800108EB8100D3
:101BE000211DFFF74FF9E06A3968C96A8842CBD3F3
:101BF0000126C9E7FEF76FFDF86900B101263046FE
:101C00006EE72DE9F047874D00242746286B38B151
:101C100000F0A4FE286B401E2863286B40B147E00B
:101C2000502080F31188BFF34F8FBFF36F8FFEE713
:101C3000A8687D498C310126D0B3DFF8EC91884645
:101C4000D8F80010E9B1D8F80C00C46804F1180005
:101C5000FFF73CF9201DFFF739F9E06A2A6906FA17
:101C600000F11143296100EB800109EB8100211D86
:101C7000FFF708F9E06A2968C96A8842E0D3EE6193
:101C8000DEE70CB100F012FCAC693CB1FFF755FF88
:101C900000B1EE61641EF9D10020A861E86938B195
:101CA0006249012738070860BFF34F8FBFF36F8F7A
:101CB00000F070FE3846BDE8F0872DE9F041594E3E
:101CC0000F460446F5683068001DFFF7FFF838B985
:101CD000306890F82C1001208840316981433161CF
:101CE000601C08D13FB13168BDE8F0414E48B430C6
:101CF000091DFFF7C7B830682C44AC424460316816
:101D000005D2B06BBDE8F041091DFFF7C7B8706B95
:101D1000091DFFF7C3F8B06A844200D2B462DFE65F
:101D20004048016B491C0163704710B5020014D094
:101D30003C48006B38B1502080F31188BFF34F8FBF
:101D4000BFF36F8FFEE7FFF7EBFF00211046FFF7B1
:101D5000B4FFFFF756FF002807D134494FF08050F9
:101D60000860BFF34F8FBFF36F8F10BD10B50446EF
:101D700000F0F4FD0CB92B480468E46A00F00AFE98
:101D8000204610BD2DE9F04100260D4604460529E8
:101D900007D3502080F31188BFF34F8FBFF36F8FAD
:101DA000FEE700F0DBFD1F4F04B93C68E06CA84281
:101DB00046D03968854206D98C4207D03968C96A4D
:101DC000A94202D902E08C4200D10126E16A88468C
:101DD000884200D1E562E564A069002802DBC5F114
:101DE0000500A061104D08EB8800616905EB8000DB
:101DF000814215D1201DFFF769F8012120B93A6908
:101E000001FA08F082433A61E06A3A69814011437D
:101E1000396100EB800005EB8000211DFFF732F8EF
:101E200076B105E024010020C003002004ED00E0AD
:101E3000F8494FF080500860BFF34F8FBFF36F8FAA
:101E4000BDE8F04100F0A6BD10B5F34C206B10B119
:101E50000120E06110BD0020E06120684FF0A53254
:101E6000006B0168914208D14168914205D18168B7
:101E7000914202D1C068904204D021682068343178
:101E8000FEF721FC2069E549B0FA80F0C0F11F009F
:101E900000EB800051F820206AB101EB800000F1D6
:101EA0000802416849684160914201D14968416036
:101EB000C868206010BD502080F31188BFF34F8F99
:101EC000BFF36F8FFEE770B5044600F047FDD24DBB
:101ED00004B92C68201DFEF7F9FF58B9E06ACF4A13
:101EE00000EB800152F8211021B9012181402869BD
:101EF00088432861A06A18B104F11800FEF7E6FFD4
:101F0000C648211DB430FEF7BDFF94F858000026E6
:101F1000012801D184F8586000F03CFD686928B1BF
:101F200000F01CFD00F0C2FA00F034FD2868844285
:101F300013D1686990B1286B38B1502080F31188B3
:101F4000BFF34F8FBFF36F8FFEE7B2494FF0805062
:101F50000860BFF34F8FBFF36F8F70BDAF48B430D1
:101F60000068A968884201D12E6070BDBDE870404C
:101F70006AE7002158B1A94B4269B4339A420FD1A4
:101F8000806AA3F1280290420AD040B108E05020B4
:101F900080F31188BFF34F8FBFF36F8FFEE70121EE
:101FA0000846704770B504002BD09B4D28688442CA
:101FB0002FD000F0D3FC2046FFF7DBFFE8B1201D57
:101FC000FEF784FFE06A01212A69814011432961FB
:101FD000924900EB800001EB8000211DFEF752FFCB
:101FE000E06A2968C96A884207D38A494FF080505D
:101FF0000860BFF34F8FBFF36F8FBDE8704000F0F4
:10200000C9BC502080F31188BFF34F8FBFF36F8F8F
:10201000FEE770BD814E804DA036804F4FF0805856
:10202000DFF8F09111E000F099FCF068C468201D21
:10203000FEF74CFFA868401EA8606868401E6860F4
:1020400000F0A8FC204600F03EFA68680028EAD1BB
:102050003868012805D9C9F80080BFF34F8FBFF356
:102060006F8FFEF72FFBF0E71CB56B4800242C3078
:10207000CDE900402346782269A16B48FFF732FD85
:10208000012803D100F0FDFA012809D0401C19D124
:10209000502080F31188BFF34F8FBFF36F8FFEE79F
:1020A000502080F31188BFF34F8FBFF36F8F5A48D2
:1020B0004FF0FF31816201214161C460BDE81C40E5
:1020C00000F0DCBB1CBD5448C068704710B50C461E
:1020D00048B1514909681831FEF7E0FE2046BDE8D5
:1020E00010400121E9E5502080F31188BFF34F8FA4
:1020F000BFF36F8FFEE770B514460D4660B14649D9
:1021000009681831FEF7BEFE0CB14FF0FF352146CD
:102110002846BDE87040D0E5502080F31188BFF319
:102120004F8FBFF36F8FFEE72DE9F041C068C468A1
:10213000ACB104F118000746FEF7C8FE364D286B17
:102140000126A0B1354839468C30FEF79BFEE06A87
:102150002968C96A88421AD90120EE61C0E450207A
:1021600080F31188BFF34F8FBFF36F8FFEE7201D01
:10217000FEF7ACFEE06A2A6906FA00F11143296114
:10218000264900EB800001EB8000211DDDE70020E7
:10219000A6E421490A6A0260C968416070472DE9D6
:1021A000F0410C46050011D0C4B100F0D7FB1A4E27
:1021B000F1686B682268C81A571C17D02F68366AF6
:1021C000B74218D08B4216D8012410E0502080F37B
:1021D0001188BFF34F8FBFF36F8FFEE7502080F35E
:1021E0001188BFF34F8FBFF36F8FFEE7002400F01D
:1021F000D1FB204674E4824205D9101A206028469B
:10220000FFF7C7FFF2E700202060DDE70249012069
:10221000C861704704ED00E024010020C0030020E5
:1022200049444C450000000015200000AB484169BE
:1022300019B1006B18B10020EBE70120E9E702209B
:10224000E7E770B504004FF0000039D0A34DE16A14
:102250002A68D26A914234D2A069002804DB286837
:10226000C06AC0F10500A061E06A9D4E00EB8000ED
:10227000616906EB800081421ED1201DFEF726FE1B
:10228000012150B9E06A00EB800256F8222022B901
:102290002A6901FA00F082432A612868C06AE06274
:1022A0002A6981401143296100EB800006EB800020
:1022B000211DFEF7E7FD02E02868C06AE062012008
:1022C00070BDE16C2A68D26A9142F8D370BD70B5D6
:1022D00004004FF0000041D0804D29688C4207D0A7
:1022E000502080F31188BFF34F8FBFF36F8FFEE74D
:1022F000216D71B1491E2165E36CE26A9A422DD0CD
:1023000000292BD1201DFEF7E1FD7549012240B1C6
:1023100012E0502080F31188BFF34F8FBFF36F8F0F
:10232000FEE7E06A00EB800351F8233023B92B6904
:1023300002FA00F083432B61E06CE062C0F105001B
:10234000A061E06A2B6982401A432A6100EB800099
:1023500001EB8000211DFEF795FD012070BD70B5D9
:102360000B4604004BD0226DA2B1E16C994200D221
:102370001946E06A884242D0012A40D1574D2A6866
:1023800094420FD1502080F31188BFF34F8FBFF3D9
:102390006F8FFEE7502080F31188BFF34F8FBFF39C
:1023A0006F8FFEE7E162A269002A02DBC1F105013D
:1023B000A1614B4E00EB8000616906EB8000814219
:1023C0001DD1201DFEF782FD012150B9E06A00EB0E
:1023D000800256F8222022B901FA00F228699043BF
:1023E0002861E06A2A6981401143296100EB80007D
:1023F00006EB8000211DBDE87040FEF743BD70BDB7
:102400003649086818B10868026D521C02650868F0
:10241000FFE62DE9F0470E46DDE9098417468246BE
:1024200091009946089DA522206B0BF077FB6FF079
:102430000301206B01EB8701084420F007077807B0
:1024400007D0502080F31188BFF34F8FBFF36F8FF9
:10245000FEE72218315C82F83410315C11B1401C67
:102460001028F6D3002684F84360052D00D30425F8
:10247000E562C4E91356201DFEF701FD04F11800C2
:10248000FEF7FDFC2461C5F105006462A06166658C
:1024900084F858604A465146384600F0CBF920602F
:1024A000B8F1000F01D0C8F8004004E40B48416BBC
:1024B000096829B1416BC968C96849688162A8E6A1
:1024C0004FF0FF31FAE710B50446006B00F015FB42
:1024D0002046BDE8104000F010BB000024010020A1
:1024E000C003002070B500244160C14D00619142DD
:1024F00006D8D11A8269914206D2011D286907E0E7
:102500009A4203D2994201D3012403E0011DE868F5
:10251000FEF7C4FC204670BDFEB51F460300089EB2
:102520004FF0000013D0B24D2C68002C0ED08DE877
:102530000E00062915DAFFF779FE02284FF0000396
:102540000DD0002269462868FEF7E8FDFEBD502048
:1025500080F31188BFF34F8FBFF36F8FFEE73246D2
:10256000F0E700233A4669462046FEF75DFFFEBDD0
:1025700030B585B09E4D4BE00198002848DB039CA8
:10258000606910B1201DFEF7A1FC04A800F095F8C9
:10259000024601980A283BD2DFE800F00505053A1B
:1025A000263705053A260298A169034601442046CC
:1025B000FFF798FF00B3616A20468847E069012869
:1025C00026D1002000900298A169002342181946E4
:1025D0002046FFF7A1FF78B9502080F31188BFF3A0
:1025E0004F8FBFF36F8FFEE70298A06128B181186B
:1025F00013462046FFF776FF0AE0502080F311884B
:10260000BFF34F8FBFF36F8FFEE7204600F075FAE0
:10261000002201A92868FEF7D5FF0028ACD105B03B
:1026200030BD734CE068016839B1002139B1002038
:1026300000F055F8FFF79CFFF4E70121F6E7C068CA
:102640000068F5E710B500F089F9694C2068A0B979
:102650006848FEF709FC67481430FEF705FC65483A
:10266000E0601430206100220C211420FEF784FC6D
:10267000206010B160A1FFF758F9BDE8104000F0EC
:1026800089B91CB5FFF7DEFF5948006860B15849A9
:102690000220091DCDE900010023F02258A15A486B
:1026A000FFF720FA002807D1502080F31188BFF3EC
:1026B0004F8FBFF36F8FFEE71CBD70B50546FFF768
:1026C00002FD4B4E0446B068844203D200F05DF830
:1026D000012000E0002028602046B46070BD2DE994
:1026E000FC410E460546FFF71BFB01A8FFF7E5FF7F
:1026F0000446019818B1FFF784FABDE8FC813C4F0D
:10270000AEB138690068A8B30026291B3246386884
:10271000FFF71BF9FFF775FA0028EED13B494FF0A0
:1027200080500860BFF34F8FBFF36F8FE5E7A5427E
:10273000EBD8FFF766FAF8682646C068C468201D23
:10274000FEF7C4FBE069012810D1A0692B464119AE
:1027500032462046FFF7C6FE40B100200346014640
:1027600000902A462046FFF7D7FE20B1616A204636
:102770008847C2E707E0502080F31188BFF34F8FEE
:10278000BFF36F8FFEE70126BFE7F8B5184E1FE0D5
:10279000C068C4680568201DFEF798FB616A204682
:1027A0008847E069012813D1A0692844A84206D9C6
:1027B00024616060211DF068FEF770FB08E00020D6
:1027C0000346014600902A462046FFF7A5FE38B191
:1027D000F06801680029DBD13169C6E90310F8BD52
:1027E000502080F31188BFF34F8FBFF36F8FFEE748
:1027F0006001002088040020546D72510000000028
:10280000546D7220537663002326000004ED00E02F
:1028100086484068401C4FF0500080F3118804D077
:10282000BFF34F8FBFF36F8FFEE7BFF34F8FBFF341
:102830006F8FFEE710B5031F4FF080741C601B1FE5
:1028400021F001011960191F794B0B6014390A60DE
:10285000091F6FF0020244380A6010BD4FF0E020FB
:1028600000210161816173494FF47A720968B1FBFB
:10287000F2F1491E41610721016170471CB56E48A4
:1028800001686E4A914207D1502080F31188BFF34E
:102890004F8FBFF36F8FFEE700686849491E88427B
:1028A00007D1502080F31188BFF34F8FBFF36F8F94
:1028B000FEE7634908780190FF20087008788DF8DA
:1028C00000009DF800009DF8002000F0F00090420C
:1028D00007D0502080F31188BFF34F8FBFF36F8F65
:1028E000FEE79DF80000514B00F0500018700720E3
:1028F000986006E0401E98609DF8000040008DF84A
:1029000000009DF8000000069868F3D4032807D063
:10291000502080F31188BFF34F8FBFF36F8FFEE716
:102920004FF4407098600198087043482030016867
:1029300041F470010160016841F070410160FFF7EE
:102940008DFF00205860FDF785FC3E48016841F08E
:1029500040410160FDF76AFC00201CBD502080F35F
:102960001188BFF34F8FBFF36F8F30494868401C09
:10297000486001280DD13048001D006810F0FF0F9D
:1029800007D0502080F31188BFF34F8FBFF36F8FB4
:10299000FEE770472549486828B1401E486001D1CC
:1029A00080F311887047502080F31188BFF34F8F58
:1029B000BFF36F8FFEE710B5502080F31188BFF38F
:1029C0004F8FBFF36F8FFFF7B8F820B11A494FF060
:1029D0008050091D0860002080F3118810BD10B5DB
:1029E000FDF770FC114910280ED300F1E02090F89B
:1029F000F0030A78904207D2502080F31188BFF389
:102A00004F8FBFF36F8FFEE70B480C30006889686B
:102A100000F4E060884207D9502080F31188BFF3AA
:102A20004F8FBFF36F8FFEE710BD000074010020D1
:102A3000112800000000002000ED00E071C20F41ED
:102A400000E400E034EF00E02DE9F0410446002509
:102A5000FFF766F9374E06F10801706801F10803C7
:102A600068B93548002720F00700C1E9000743F6A0
:102A7000F872C3E90072C0E90032012070603CB115
:102A80000834600704D004F00700C0F108000444D3
:102A9000601E43F6F772904227D2264A0968083230
:102AA00001E00A4601464868A04202D208680028B0
:102AB000F7D1994219D01568086810604868083540
:102AC000001B10280DD90B1958601A484C600830AB
:102AD0005C6800E0104602685768A742FAD31A60A3
:102AE000036048683168081A3060FFF78AF80DB94A
:102AF000FDF7E0FD2846BDE8F08110B5002817D0AD
:102B0000A0F10804FFF70CF90A496068083100E0F9
:102B100011460A6853688342FAD3226005480C6064
:102B20006168026811440160BDE81040FFF769B8B0
:102B300010BD000080010020B80400200026FF4CDA
:102B400007464FF0FF3801250020FFF7BCF941464A
:102B50003846FEF7ADFB012803D0206948B1266155
:102B6000F2E700231A4619463846FEF7D7FA01283D
:102B7000EAD02560E8E7F14C0020FFF7A4F9E0680F
:102B8000401CE060F8E72DE9F0410F4606460021C1
:102B9000FEF78EFB0124E94D012800D02C600020B7
:102BA000E860FFF7E3F800B12C60E869FFF7FAF995
:102BB0000020FFF7DBF8032800D02C60286AFFF71D
:102BC000F1F9E86800B12C6000213846FEF770FB8F
:102BD000012800D02C6000231A4619463846FEF71B
:102BE0009DFA012800D02C60E86800B12C6000201C
:102BF000FFF7BCF8032800D02C6000231A461946C2
:102C00003046FEF78BFA012800D02C60E8680128D6
:102C100000D02C600020FFF7A9F8002800D02C601D
:102C2000BDE8F0812DE9F0410E4607460021FEF790
:102C30003FFB0124C14D012800D02C600020E8603A
:102C4000FFF794F800B12C60E869FFF7ABF90020BA
:102C5000FFF78CF8032800D02C6001210020FFF73B
:102C600091F80020FFF782F8032800D02C60286A32
:102C7000FFF798F9E86800B12C6000213046FEF7B4
:102C800017FB012800D02C6000231A46194638464D
:102C9000FEF744FA012800D02C60E86800B12C60EF
:102CA0000020FFF763F8032800D02C6000231A46A9
:102CB00019463046FEF732FA012800D02C60E86849
:102CC000012800D02C600020FFF750F8012800D028
:102CD0002C60BDE8F04100210846FFF753B80646D6
:102CE0000120FEF7D3FA05000FD0944C2946304658
:102CF000FFF798FFA268521CA26029463046FFF7F2
:102D000042FFA068401CA060F0E7502080F31188CB
:102D1000BFF34F8FBFF36F8FFEE70EB5022700267C
:102D2000864D80460124686802900123002202A992
:102D30004046FEF7F3F94046FEF7C1FD012800D0FA
:102D40002C60002269464046FEF73CFC012800D07A
:102D50002C6068680099884200D02C604046FEF7DD
:102D6000AEFD00B12C606868002302901A4602A9EB
:102D70004046FEF7D3F94046FEF7A1FD012800D0FA
:102D80002C60002269464046FEF71CFC012800D05A
:102D90002C604046FEF793FD00B12C6068680099F6
:102DA000884200D02C60009700231A4669464046AE
:102DB000FEF7B4F90098401C00900528F4D3404673
:102DC000FEF77DFD032800D02C6001230022694618
:102DD00040460094FEF7A2F90123002269464046CE
:102DE0000096FEF79BF94046FEF769FD052800D0E6
:102DF0002C600123002269464046FEF78FF900B19E
:102E00002C6000231A4669464046FEF787F900B158
:102E10002C600096002201A94046FEF76CFC0128B8
:102E200000D02C60DDE90010814200D02C60C0434E
:102E30000190002201A94046FEF7C4FB012800D002
:102E40002C60DDE90001884200D02C60401C00901D
:102E50000528DFD34046FEF732FD00B12C600A2082
:102E6000002300901A4669464046FEF757F90128AC
:102E700000D02C600B20002300901A466946404683
:102E8000FEF74CF9012800D02C604046FEF717FDF4
:102E9000022800D02C6009200090012300226946FE
:102EA0004046FEF73BF9012800D02C600098401EF8
:102EB00000900728F1D24046FEF701FD052800D01A
:102EC0002C600123002269464046FEF727F900B135
:102ED0002C6000231A4669464046FEF71FF900B1F0
:102EE0002C6007200090002201A94046FEF76AFBF3
:102EF000012800D02C60DDE90001884200D02C6060
:102F0000401C00900C28EED34046FEF7D8FC00B1E0
:102F10002C606868401C686005E77CB506460022A6
:102F200004210520FEF728F804004FF0000515D015
:102F300003A1FEF7FAFC2346782209E0980100205D
:102F400047656E5F51756575655F54657374000004
:102F5000CDE9006514A11648FEF7C4FD0120FEF777
:102F600095F904001FD013A1FEF7DFFC009523465E
:102F7000782214A115480195FEF7B4FD14490220EA
:102F8000CDE900010023782212A11448FEF7AAFD22
:102F90000F490320091FCDE900012346782210A123
:102FA0001148FEF79FFD7CBD47656E510000000093
:102FB0001B2D000047656E5F51756575655F4D752A
:102FC000746578004D754C6F77000000DF2C0000B1
:102FD000B80100204D754D6564000000772B00009E
:102FE0004D754869676800003D2B000008B507462D
:102FF0000020364EADF800000546002400231A4696
:1030000069463868FEF78AF8012801D001250CE0EE
:1030100035B9FFF7A3FC7068401C7060FFF7BAFC7D
:10302000BDF80000401CADF80000641C032CE5DB7B
:10303000C820FEF77AFEE0E708B5002406462546DC
:10304000224F17E0002269463068FEF7BBFA0128DC
:1030500010D1BDF80000A04202D00125044607E0CF
:1030600035B9FFF77BFC3868401C3860FFF792FCED
:10307000641CA4B23068FEF722FC0028E2D1B42020
:10308000FEF753FEF6E77CB50446002202210A2033
:10309000FDF772FF0D490028886015D00CA1FEF7DE
:1030A00044FC0A4B0025083378220DA10E48CDE9D7
:1030B0000045FEF717FD054B782208330BA10D489C
:1030C000CDE90045FEF70EFD7CBD0000BC010020EF
:1030D000506F6C6C5F546573745F517565756500F6
:1030E00051436F6E734E4200393000005150726F81
:1030F000644E4200ED2F0000012288420AD9401A96
:10310000032812D9502080F31188BFF34F8FBFF3EB
:103110006F8FFEE7081A032807D9502080F3118823
:10312000BFF34F8FBFF36F8FFEE71046704770B548
:103130004FF6FF750026C04CA8421BD3411B062941
:1031400008D3C143062905D9E16AFFF7D5FF012855
:1031500000D0A660A06828B1E06A401CE06200D1FF
:10316000E56270BD502080F31188BFF34F8FBFF32D
:103170006F8FFEE706280AD34FF6FE71091A06295B
:1031800005D9A16AFFF7B8FF012800D0A660A068A2
:1031900030B1A06A401CA062A842E2D3A66270BD12
:1031A000502080F31188BFF34F8FBFF36F8FFEE77E
:1031B000F8B5002509200095FEF7E9FB9E4E9F4FCC
:1031C00000247063002204210320FDF7D5FE47F898
:1031D000240028B1716BFEF7DEFB01280ED107E059
:1031E000502080F31188BFF34F8FBFF36F8FFEE73E
:1031F00057F82400716BFEF7CEFB00B1B560641C7C
:10320000032CDFDB00213868FEF7D6FB00B1B56088
:103210003868716BFEF7D0FB012800D0B560002341
:103220001A4669463868FDF779FF3868716BFEF712
:10323000B2FB00B1B560002269463868FEF7C2F9FA
:103240003868716BFEF7A7FB012800D0B560C82174
:10325000706BFEF7C2FB00B1B560B06BFEF7A2FE6B
:103260000120F060F8BD08B5FFF7A2FF724D4FF0E6
:10327000FF3700260020FEF779FDD0B13C463946E5
:10328000686BFEF7AAFBB0B100226946FEF79AF917
:10329000012800D0AE60FFF761FB0098FFF747FF01
:1032A000FFF778FBA8680128E4D16868401C6860D3
:1032B000E0E70024E3E7002CDCD0AE60DAE708B5F5
:1032C0005D4C0025DFF874A10095C4F814D043F2DA
:1032D00039074FF003090AF10C064FF0FF3B4FF698
:1032E000FF7857496069002300FB01706061C0F3FB
:1032F0000E40B0FBF9F209FB120156F821205AF8F2
:103300002100521C46F821205A466946FDF706FF67
:10331000012800D0A5600098401C0090404500D1D5
:10332000009500F03FF8DCE77CB5434801243830D5
:10333000CDE900400023782242A14448FEF7D2FBA9
:103340003D4DAB6B002B0DD005F13C00CDE90040AD
:1033500078223FA14048FEF7C5FBA86BBDE87C4042
:10336000FEF7B1BD7CBD38B5334CE068012818D1FB
:10337000606A401C6062642813D900256562606B36
:10338000FEF734FB48B100226946FEF74CFA0128EB
:1033900000D0A5600098FFF7CAFEBDE8384000F0F5
:1033A0002BB838BD70B5244C206A401C206212280E
:1033B00021D30025256220462178C06B69B10129FF
:1033C00010D0022917D10121A06BFEF7DBFC25707C
:1033D000BDE87040C820FEF7A8BC0021FEF7D2FC73
:1033E000012007E00121FEF7CDFC0021A06BFEF7D4
:1033F000C9FC0220207070BD38B50F4C20690090C8
:103400000E48216B00231A4650F821006946FEF74A
:103410000BF801280ED12069401C2061206910B9E9
:103420004FF6FF702061206B401C2063032801DBF6
:103430000020206338BD0000C8010020B0440020F7
:103440006D4EC6415365745478000000BF320000D1
:1034500053657452780000006732000008B50446D6
:103460000025FFF77BFA5749B1F900700888401C26
:103470000880FFF78FFAD4E9016010B140F6FF70C1
:1034800000E0FF200090A1682068FDF711FF0128EF
:103490000BD0A0680028F6D14B494FF0805008604F
:1034A000BFF34F8FBFF36F8FEDE73068009988420D
:1034B00000D00125002005E030603168814200D055
:1034C0000125401C00998842F6D900231A46194666
:1034D0002068FDF723FE08B115B10AE0012508E0D8
:1034E000042F06DA3748801C30F81710491C20F8E2
:1034F0001710A06800EB80004000FEF716FCC2E742
:103500007CB505460C20FFF79FFA04004FF000063B
:1035100026D0032200210120FDF72EFD2060F8B106
:1035200000231A461946FDF7F9FD0420FFF78CFA2F
:10353000FF2160600160A66000962346782223A1E7
:1035400024480196FEF7CEFA00962346782222A15F
:1035500020480196FEF7C6FA21A12068FEF7E5F99A
:103560000C20FFF771FA04002BD003220021012068
:10357000FDF702FD2060002823D000231A461946DB
:10358000FDF7CCFD0420FFF75FFA40F6FF716060A5
:1035900001606420A060CDE900562346782214A182
:1035A0000C48FEF79FFACDE900562346782212A177
:1035B0000848FEF797FA2068BDE87C4010A1FEF7A6
:1035C000B4B97CBD0802002004ED00E0506F6C53DC
:1035D000454D31005D340000506F6C53454D320055
:1035E000436F756E74696E675F53656D5F31000080
:1035F000426C6B53454D3100426C6B53454D32006C
:10360000436F756E74696E675F53656D5F3200005E
:10361000F0B510F47F3F2ED04FF08043D3F8F43153
:10362000DFF828C3DFB2C94BC0F381440C3B6FEA1B
:1036300090450CF1040603EB8403012F02D0022C09
:103640000DD001E0022C02D0AC070AD00AE0C3433F
:10365000DC06BF4B06D000F01F041D2C02D06346D1
:1036600000E033461C68C0F38725C0F34416B5401C
:10367000AC4314431C60420E52070ED0B44BC0F34F
:103680000172183B03EB82021368C0F34264C0F37B
:1036900004508440A3430B431360F0BD00F01F02AD
:1036A00001219140AA4A243A800F02EB800002686F
:1036B0000A430260704730B501240546A549A207B8
:1036C00005E0081EA1F1010101DC002404E0D2F8AC
:1036D000503235EA0300F4D1204630BD2DE9F041E7
:1036E0004FF080440746D4F850020E4600F0100513
:1036F000D4F8000240F00400C4F80002102004F5E1
:103700000074FFF7D8FF206940F007002061206AAD
:1037100020F00F0030432062206920F0070038437A
:103720002061A4F50074FCF7DFFD002D05D1D4F86D
:10373000000220F00400C4F80002BDE8F08108B5E2
:1037400085A10020096800914FF08041D1F8401216
:1037500011F4A02F13D181488A0310D4C1F30800BB
:10376000C1F381327E4B801C1DF80220C1F344213D
:103770005843491C11FB02F1B0FBF1F0C00008BD39
:103780004FF08040D0F8401241F48031C0F8401230
:1037900070472DE9F84F0E460446FFF7F1FF4FF052
:1037A00080406E4DD0F80012C4B141F00401C0F861
:1037B00000121020FFF77FFF4FF4002000906948AF
:1037C00069493044AB46884269D84FF000094FF050
:1037D000FF31CC464F46B646012515E041F00101C8
:1037E000C0F800120120FFF766FF0020E6E7D1B322
:1037F000032D35D0042D02D0022D05D102E04FEA71
:103800008E0601E04FEA4E06022249B3BBFBF2F0FE
:10381000564B564C03446442A3421ED80224C0F3C4
:103820005D0A504B0AFB04F000EB0308504B98452F
:103830000ED8B0EB960F02D9A0EB960001E0C0EBDA
:103840009600884204D201009146A4462F4604D037
:1038500040F20120641C8442E3D9521C202AD4D9AE
:103860006D1C042DC3D94348009900EB8730424AB0
:10387000084302EB49210843ACF1020108434FF031
:103880008041C1F840020420FFF715FF07FB09F74C
:10389000BBFBF7F000FB0CF04000BDE8F88F54B123
:1038A00036494FF08040C0F840120420FFF703FF74
:1038B000BDE8F84F43E744F21E21F2E770B54FF040
:1038C00080440646D4F8500200F010052C48864289
:1038D00000D90646D4F8000240F00400C4F8000203
:1038E000102004F50074FFF7E6FE206940F00700A1
:1038F0002061206A20F00F0020622068A4F5007487
:10390000C007314604D00020FFF743FF064608E019
:103910004FF40020FFF73DFF0646D4F8500200F0B8
:10392000100500210220FFF7D9FE2DB9D4F80002BE
:1039300020F00400C4F80002304670BD4FF0804112
:10394000D1F800220243C1F8002270472C02004047
:103950002802004080F5200001020204001BB7008D
:10396000C0C62D00800F05FD8074D21A00F7C2FF7B
:10397000C068780400C0FFFF00FEFFFF1E42080081
:1039800000B0710B04461FA00AF032FA204600F086
:1039900007F8FEE710B5044600F026F8204610BDF3
:1039A00010B5044601681DA00AF022FA1EA0616845
:1039B0000AF01EFA1FA0A1680AF01AFA20A0E16816
:1039C0000AF016FA21A021690AF012FA22A0616910
:1039D0000AF00EFA23A0A1690AF00AFAE169BDE82B
:1039E000104023A00AF004BA24498A691202FCD4C8
:1039F0000A2804D10D220A608A691202FCD40860E8
:103A000070470000496E2048617264204661756C01
:103A1000742048616E646C65720A00007230202068
:103A20003D20307825780A00723120203D20307802
:103A300025780A00723220203D20307825780A004F
:103A4000723320203D20307825780A0072313220F0
:103A50003D20307825780A006C7220203D20307897
:103A600025780A00706320203D20307825780A00F0
:103A7000707372203D20307825780A0000000740DE
:103A80002DE9FF4104463C480F4600250FC88DE84C
:103A90000F003A492E464FF080408C4206D1D0F8B4
:103AA0001412D0F82002C1F301652AE034498C4297
:103AB00006D1D0F81412D0F82002C1F381652BE0B2
:103AC00030498C4208D1D0F81C12D0F83002C1F332
:103AD000016500F00F0621E02B498C4208D1D0F897
:103AE0001C12D0F83002C1F38165C0F3031615E053
:103AF00026498C4208D1D0F81C12D0F83002C1F30C
:103B00000175C0F3032609E021498C4206D1D0F8A3
:103B10001C12D0F830028D0FC0F303360020206352
:103B20000320E060A0681B490840A060E846012D22
:103B300002D1FFF704FE0190002F1AD058F825108B
:103B4000761CB1FBF6F000EB5700B0FBF7F0801EDF
:103B5000B0F5803F0AD3B1FBF6F000EBC700B0FB35
:103B6000F7F06FF0010101EB101001E040F0405060
:103B70006062BDE8FF81000014E100000000074022
:103B80000010074000200740003007400040074079
:103B9000005007400FFFF0FFF74B1864C3E90C1209
:103BA0000068C0791862F5484FF4DA610161D0F815
:103BB000901041F00101C0F890107047EF48D0F824
:103BC000901021F00101C0F890104FF4FA610161EA
:103BD00040F20F11416002680A4302607047E649F3
:103BE0000822443100F062BAE34A9060002010617C
:103BF0005161106AE249086070472DE9F041DE4CDE
:103C00000D46276ADE49DE4A0C39143ADD4B0E1F99
:103C1000BD4214D9276A07446760276AED1BE56037
:103C20000D6845F080050D601168226A0B4401465D
:103C3000184600F03BFA206A3060BDE8F0810027AA
:103C40006760E7600C6844F080040C6011682A46E5
:103C50000B440146184600F029FA3560EDE7F0B450
:103C6000C54C0020607004F14403C54ED8799979A1
:103C7000C34F01EB00212046DA780125083E0837C2
:103C8000006C0F2A24D006DC012A0CD0022A0FD0A7
:103C9000032A48D13CE0B84B4433212A1B791DD07C
:103CA000222A40D123E0122900D31221006838E0F3
:103CB0004068C278837803EB0222914231D91146E1
:103CC000226AB1FBF2F302FB131202BB657028E01B
:103CD000006940B30C2924D30C2122E0092900D328
:103CE00009218269406852F82320104419E0426992
:103CF00052F823208A4207D21146226AB1FBF2F61B
:103D000002FB161202B96570C06850F8230008E083
:103D10009A78042A07D2806850F8220002788A42F2
:103D2000CDD3F0BC69E7306840F0020030603868FD
:103D300040F002003860F0BC70472DE9F0478E4932
:103D400000254D60CD6001F144039846187898F83D
:103D500004408D4EDFF834C2DFF834A204F00F07C0
:103D600098F8018002064FF0010906F1040470D5AD
:103D7000844A331FB8F1000F1AD0B8F1060F0AD0E9
:103D8000B8F1080F03D0B8F10A0F53D106E0186854
:103D9000C969104405E0FFF762FF46E01868496A08
:103DA00010440170206840F08000206048463BE0ED
:103DB000802804D0812813D0822814D02BE00F6CE7
:103DC00000207F68FF795FEA476C00D50120BF06BD
:103DD00003D50978490640EA1160196888541AE049
:103DE0001868855417E0186800EB0208002004EBFF
:103DF00000110A6802F00F02BA4202D10CEB001166
:103E000002E0401C0C28F2D3086810F0020000D039
:103E1000012088F8000018685A49491C4554206858
:103E200040F08000206002203060BDE8F0470021B3
:103E30000846D9E6DCF8000040F00200CCF80000AB
:103E4000DAF8001041F00201CAF80010BDE8F0876E
:103E5000FFE7494A4432B8F1050F927842D008DCB6
:103E6000B8F1010F11D0B8F1030FE3D1000741D031
:103E700042E0B8F1090F37D0B8F10B0FDAD14A623E
:103E80004A6B3AB3486A904726E012B1012A22D021
:103E900022E0DFF8E8C0CA6B00204B460CEB0011B3
:103EA000D1F8088508F00F08B84510D103FA00F8DA
:103EB00018EA020F0BD1D1F80C8528F00208C1F8DE
:103EC0000C85D1F8088528F08008C1F80885401CC9
:103ED0000C28E3D300E00D70206840F080002060E3
:103EE0003560B3E78A61F7E7CA61886B0028F3D0D1
:103EF0008047F1E7032A05D062B1012AECD181F8AD
:103F00000090E9E7D8780028E6D12248016841F01E
:103F100006010CE0002004EB0011096801F00F011C
:103F2000B94206D10CEB0010016841F002010160BA
:103F3000D2E7401C0C28EED3CEE710B50E4C002083
:103F4000A06208220F4904F1440000F0AFF804F128
:103F50004400007810F060001ED020281FD04028B8
:103F60001FD00A48016841F0020101600848016859
:103F700041F00201016010BD2002002000000C4051
:103F800014050C4000010C4004050C400C050C40CD
:103F90001C050C4000D00440BDE81040CDE6206B6D
:103FA00000E0E06A0028E6D0BDE8104000472DE9B7
:103FB000F041454CE068454D0026F8B1E368276ABA
:103FC0002A1F2146424849681268BB4210440DD955
:103FD000226A00F06BF8206A2860216A6068084451
:103FE0006060E068216A401AE06026E6E26800F05E
:103FF0005DF8E06828606660E6601EE6324844309E
:10400000017851B94078052807D132498868A269FA
:10401000904202D008B9A069886060780028E4D096
:104020002E60667009E670B52A48016A264C01F0D8
:10403000F001A26A254E103691421AD0006A00F0B3
:10404000F000A06220696169884214D23568301F8F
:1040500000681F492A460144A06800F027F8A068BC
:104060002844A06020692844206120696169884251
:1040700001D2206A306070BD134810B50022426042
:10408000C260826002614261C26342648264114B19
:10409000104603EB0011D1F8084524F08004C1F864
:1040A0000845401C0C28F4D39A6064E718B5002337
:1040B0000093521E06D3009B009CCB5C0355009BD3
:1040C0005B1CF5E718BD00002002002004050C4031
:1040D00000010C4000000C4040BA704700BA704725
:1040E00018B50022ADF8002010F001030BD0002914
:1040F00009DD10F8014B8DF80140491E03E030F84E
:10410000024B891E22440129F9DC002902DD0078D6
:104110008DF80000BDF800001044010C11FA80F089
:10412000010C11FA80F023B1C1B2C0F3072040EABC
:10413000012080B218BD30B41B68029D9CB204EB14
:1041400013442B6814FA83F404EB13431C0C14FA85
:1041500083F31C0C14FA83F330BC00F030B838B58C
:10416000049C0094FFF7E7FF38BD00B5FFF7B8FFE8
:10417000C04380B200BD70B500240546264613E05A
:1041800069896868FFF7ACFF2044010C11FA80F4DC
:10419000A87AC00707D0C6F10100C6B2E0B2C4F3E6
:1041A000072141EA00242D68002DE9D126B1E0B2B3
:1041B000C4F3072141EA0024E04380B270BD2DE939
:1041C000F0411C4617468C460546002613E06989D7
:1041D0006868FFF785FF2044010C11FA80F4A87A83
:1041E000C00707D0C6F10100C6B2E0B2C4F3072190
:1041F00041EA00242D68002DE9D126B1E0B2C4F3D4
:10420000072141EA00246046FFF766FF0444384670
:10421000FFF762FF2044010C11FA80F0010C11FA43
:1042200080F0C04380B2BDE8F08110B509F0E8F934
:1042300000F05EF800F005FB00F0D0FB05F08AF915
:1042400001F042FABDE8104005F0CEB870B5D94D86
:1042500004462868844206D2D7A340F25D12E0A14A
:10426000E5A009F0C5FD6868844206D3D2A34FF4E7
:10427000AF72EBA1E0A009F0BBFD207930B1CEA375
:1042800040F25F12EDA1DCA009F0B2FD208842F2FD
:104290001071884206D9C8A34FF4B172EEA1D6A01E
:1042A00009F0A6FD20882968084484420ED00279CE
:1042B00062B96A68904209D0AA68824200D1AC60B3
:1042C000028822800388621A881C1A526088084477
:1042D000A0420CD00279002A09D1AA68A24200D1DA
:1042E000A860228802802288401A891C505270BD22
:1042F00010B5E448AF4B20F0030042F21072186092
:1043000002800021418001718118012459600C71E3
:104310000A804A80986003F10C0009F040F90028F7
:1043200008D0BDE81040A4A34FF4CC72D6A1B2A02F
:1043300009F05EBD10BD70B5040040D0A00706D0E6
:104340009DA34FF4D672D7A1ABA009F051FD994DB2
:104350002868844202D36868844206D396A34FF447
:10436000D772D9A1A4A009F043FD2868844202D3E2
:104370006868844205D309F05AF9BDE8704009F035
:104380005EB98C480C3009F016F914F8040C083C9E
:1043900030B989A34FF4E072D1A197A009F028FDAC
:1043A00000202071A868844200D2AC602046FFF74C
:1043B0004DFFBDE870407F480C3009F007B970BD73
:1043C0002DE9F04707464FF6FC70C91C01EA0004CE
:1043D00042F2107A0C2C01D20C2401E054452DD865
:1043E000744E3068874202D37068874206D372A346
:1043F00040F2F312BFA180A009F0FAFC30688742B6
:1044000002D371688F4204D309F011F909F017F94A
:1044100019E0A7F10805B046281A86B22888801B43
:1044200008381FFA80F94C4506D963A340F20622EA
:10443000B6A171A009F0DCFC4C4503D94FF0000097
:10444000BDE8F08701D13846FAE75A4800F10C0080
:1044500009F0B1F82888D8F80010424600EB0108AE
:10446000002398F80400D8B104F1140CCC4512D8FC
:104470003019083084B2D2F808C00819604500D25B
:10448000906003712A88028046802C800088504505
:1044900001D0891C445247480C3009F097F8D2E704
:1044A000301908309468B8F800C080B2444501D192
:1044B0000C1894600A181371A2F800C05680288066
:1044C00012885245E7D0891C5052E4E72DE9F047A5
:1044D0000028B5D04FF6FC71C01C00EA010542F27D
:1044E00010770C2D01D20C2503E0BD4201D900202C
:1044F000A6E730480C3009F05EF82E4E7A1BD6F84D
:1045000008C03168ACEB010080B23AE10C182379A5
:10451000002B4DD123881B1A083BAB4248D322887D
:1045200005F11403121A083A4FF001099A4215D303
:104530004219083293B2CA184FF0000882F804807A
:10454000B4F80080A2F800805080238084F80490A2
:104550001088B84204D08A1C835201E084F8049089
:10456000644518D1706803E0BCF8002002EB010C30
:104570009CF804200AB18445F6D1C6F808C08445E9
:1045800009D09CF8040030B10BA340F2CF2267A100
:1045900019A009F02DFC07480C3009F017F8601934
:1045A00071680830884204D903A340F2D322CBE0DB
:1045B000E6E0CEE06C0200202E2E5C2E2E5C5468CD
:1045C00069726450617274795C6C7749505C737283
:1045D000635C636F72655C6D656D2E630000000047
:1045E000706C75675F686F6C65733A206D656D20E0
:1045F0003E3D2072616D0000417373657274696F96
:104600006E2022257322206661696C6564206174C6
:10461000206C696E6520256420696E2025730A0070
:10462000706C75675F686F6C65733A206D656D209F
:104630003C2072616D5F656E64000000706C756790
:104640005F686F6C65733A206D656D2D3E7573659F
:1046500064203D3D20300000706C75675F686F6CB2
:1046600065733A206D656D2D3E6E657874203C3D16
:10467000204D454D5F53495A455F414C49474E4592
:1046800044000000EF4400206661696C656420749A
:104690006F20637265617465206D656D5F6D757403
:1046A000657800006D656D5F667265653A207361BF
:1046B0006E69747920636865636B20616C69676EED
:1046C0006D656E74000000006D656D5F66726565F6
:1046D0003A206C6567616C206D656D6F72790000C2
:1046E0006D656D5F667265653A206D656D2D3E7511
:1046F000736564006D656D5F7472696D3A206C65F9
:1047000067616C206D656D6F727900006D656D5F1E
:104710007472696D2063616E206F6E6C79207368AE
:1047200072696E6B206D656D6F7279006D656D5F7E
:104730006D616C6C6F633A20216C667265652D3E0D
:10474000757365640000000011A1AFF2541009F008
:104750004FFBA00711D0AFF2A01340F2D52218A151
:10476000AFF26C1009F044FBAFF2B41340F2D72261
:104770001FA1AFF27C1009F03BFB04F108005FE6DB
:10478000085A82423FF6C2AE224808F01FFFAEE64A
:104790006D656D5F6D616C6C6F633A20616C6C6F01
:1047A0006361746564206D656D6F7279206E6F74DE
:1047B0002061626F76652072616D5F656E642E00A8
:1047C0006D656D5F6D616C6C6F633A20616C6C6FD1
:1047D0006361746564206D656D6F72792070726FAE
:1047E0007065726C7920616C69676E65642E00007B
:1047F0006D656D5F6D616C6C6F633A2073616E699E
:10480000747920636865636B20616C69676E6D65A0
:104810006E740000780200200021826811604168F7
:10482000C91C21F00301002207E08368521C1B68A9
:104830000B60836819600388194443889342F4DC51
:10484000704730B5304D002455F82400FFF7E4FFE1
:10485000641CA4B20D2CF7D330BD70B5044608F02B
:10486000E6FE0546A0680468002C0FD021680160B0
:10487000A00706D025A34FF4A4722EA136A009F0FC
:10488000B7FA284608F0DBFE204670BD284608F03F
:10489000D6FE002070BD10B50D2808D31BA340F232
:1048A000871237A12CA009F0A3FA002010BD1649E9
:1048B00051F82000BDE81040CFE770B505460C4622
:1048C000880706D011A34FF4CE7235A122A009F0BB
:1048D0008FFA08F0ACFEA96809682160A9680C602D
:1048E000BDE8704008F0ABBE0D2806D307A340F228
:1048F000DB1233A118A009F07BBA002903D0024AC9
:1049000052F82000D9E77047E0E100002E2E5C2E1F
:104910002E5C546869726450617274795C6C77497A
:10492000505C7372635C636F72655C6D656D702E55
:10493000630000006D656D705F6D616C6C6F633A54
:10494000206D656D702070726F7065726C7920617A
:104950006C69676E65640000417373657274696F9A
:104960006E2022257322206661696C656420617463
:10497000206C696E6520256420696E2025730A000D
:104980006D656D705F6D616C6C6F633A20747970EA
:1049900065203C204D454D505F4D415800000000C2
:1049A0006D656D705F667265653A206D656D20702E
:1049B000726F7065726C7920616C69676E656400F6
:1049C0006D656D705F667265653A207479706520FB
:1049D0003C204D454D505F4D41580000704738B563
:1049E0000D00044601D0286801E0494800680090A5
:1049F000616888420ED06946201D01F033FF694688
:104A0000201D04F0F0FF35B12868606001212046C8
:104A100000F070F838BD0020F7E701B10968C16007
:104A2000704701B10968816070472DE9F0411E4669
:104A3000054617460C000ED0206860B11146284686
:104A4000FFF7EFFF31462846FFF7E7FF21462846EC
:104A5000BDE8F041C3E72846FFF7C1FF39462846C5
:104A6000FFF7DFFF31462846BDE8F041D5E72DE9E5
:104A7000F0479846DDE908650A9F91468A46044654
:104A80002DB924A3FB222DA132A009F0B1F90020F9
:104A90006060A060E06084F82B00032084F82000B0
:104AA000E661364E43464A46307884F82E00401C74
:104AB0003070514620462761FFF7B7FF2046A847D0
:104AC00010B10020BDE8F087706820602046746057
:104AD000F8E72A498860704790F82B10CA0708D178
:104AE00041F0010180F82B10490702D5032100F0A5
:104AF00001B87047C90709D04168002906D090F86D
:104B00002B10090702D5011D04F0FCBF70470000FF
:104B100080E200002E2E5C2E2E5C54686972645078
:104B2000617274795C6C7749505C7372635C636F1B
:104B300072655C6E657469662E6300004E6F206955
:104B40006E69742066756E6374696F6E206769762E
:104B5000656E0000417373657274696F6E20222563
:104B60007322206661696C6564206174206C696ED3
:104B70006520256420696E2025730A00B00200209C
:104B800070B508F054FDFF4900250D7008F057FD81
:104B9000FD48046806E0206F18B100F0A4FD256709
:104BA00070BDE468002CF6D170BD70B508F03FFD13
:104BB000F44D2C780121297008F041FD002C0ED114
:104BC00000221146F14808F074FA002807D008F0D6
:104BD0002EFD00212970BDE8704008F030BD70BD89
:104BE0002DE9F041040015D0207B60B101280AD0E6
:104BF000022808D0032806D0E5A34FF43772EEA1AF
:104C0000F3A009F0F5F8002508F011FD0746E0894A
:104C100050B110E0DEA340F2D222F7A1ECA009F0DF
:104C2000E7F80020BDE8F081D9A340F2EB22F5A11E
:104C3000E7A009F0DDF8E089401E86B2E68138463B
:104C400008F0FDFC002E1ED1617B207B26688907C1
:104C50000CD5206930B9CEA340F2F922EFA1DCA037
:104C600009F0C6F821692046884708E003280CD0DF
:104C700001280DD002280BD02046FFF75CFB6D1CED
:104C8000EDB23400C0D12846CCE721460C2001E02B
:104C900021460B20FFF728FEF1E72DE9F05F904653
:104CA0000E4605281FD2DFE800F0030507090900BA
:104CB000362504E0222502E00E2500E00025100044
:104CC0004FF0010B4FF0000A7CD001287BD0022866
:104CD000FCD0032A0CD0AEA34FF4C672D8A1BCA05E
:104CE00009F086F8C6E0AAA34FF48B72DBA1F6E7C1
:104CF0000C20FFF7D0FD040039D06019133084F880
:104D00000C8020F00300C4E900A0800706D0A0A317
:104D10004FF49472D8A1AEA009F06AF8ED1C25F00A
:104D20000300C0F584602681B04200D9304660811E
:104D3000616804F586690144494506D994A34FF496
:104D40009772D9A1A2A009F053F84FF48470B0EB88
:104D5000950F06D18EA340F23112E0A19CA009F07C
:104D600047F8A4F80EB060892746361A41E0FFF7ED
:104D70001CFF7FE00C20FFF78EFD05003CD085F87E
:104D80000C8085F80DA0C5F800A04FF6FF703D60BF
:104D9000864206DB7EA34FF4A672DDA18CA009F04B
:104DA00027F8B0B24FF484612881884200D30846C6
:104DB000688105F110006860800709D074A340F293
:104DC000511201E01EE041E0D6A181A009F010F8E7
:104DD000618960680144494506D96DA340F25312C8
:104DE000B1A17BA009F004F8A5F80EB068892F46A0
:104DF000361A002EBEDC36E0FFF7D7FE2046FFF75E
:104E0000EFFE37E005F1130020F00302F01C20F064
:104E10000301501880B281422CD8FFF757FB041EC3
:104E200026D06019133020F003006060268166816F
:104E3000C4F800A084F80CA0800714D054A34FF449
:104E4000BB72C4A162A008F0D3FF0CE00B20FFF7F7
:104E500022FD04000ED0C4F804A026816681C4F8A7
:104E600000A084F80C80A4F80EB084F80DA02046B1
:104E7000BDE8F09F0020FBE770B50528DDE904459B
:104E800013D2DFE800F0030507090900362004E02B
:104E9000222002E00E2000E00020C01C20F00300D1
:104EA0004618AE4209D9002070BD39A340F2C512A0
:104EB000B3A147A008F09CFFF5E700251D6014B1E1
:104EC0002044586000E05D600220587319815981C8
:104ED0001A730120D881184670BD2DE9F0470D46A0
:104EE000040006D12AA340F2F312AEA138A008F0C4
:104EF0007FFF207B03280BD0012809D040B1022876
:104F000006D023A34FF4FA72ACA131A008F070FFD1
:104F10002089A84235D92E1A4FF6FF7740F20B2888
:104F200040F20F2914E0281A85B2BE4205DB18A30F
:104F30004246A9A126A008F05BFF208930442081C9
:104F400024682CB912A34A46A8A121A008F050FF5A
:104F50006089A842E7D3207B90B96089A8420FD02E
:104F6000607B80070CD4A088001B284481B22046B7
:104F7000FFF726FA040003D105A340F21D2241E108
:104F800045E14CE1BC020020D8020020814B00002A
:104F90002E2E5C2E2E5C5468697264506172747996
:104FA0005C6C7749505C7372635C636F72655C70B4
:104FB0006275662E63000000706275665F667265DA
:104FC000653A2073616E6520747970650000000099
:104FD000417373657274696F6E2022257322206697
:104FE00061696C6564206174206C696E652025645C
:104FF00020696E2025730A007020213D204E554CFB
:105000004C000000706275665F667265653A2070DC
:105010002D3E726566203E203000000070632D3EFC
:10502000637573746F6D5F667265655F66756E63D9
:1050300074696F6E20213D204E554C4C00000000DD
:10504000706275665F616C6C6F633A206572726F37
:105050006E656F7573207479706500007062756697
:105060005F616C6C6F633A20626164207062756688
:10507000206C617965720000706275665F616C6CAE
:105080006F633A207062756620702D3E7061796C96
:105090006F61642070726F7065726C7920616C69E9
:1050A000676E656400000000636865636B20702DA7
:1050B0003E7061796C6F6164202B20702D3E6C65B1
:1050C0006E20646F6573206E6F74206F76657266F4
:1050D0006C6F772070627566000000005042554684
:1050E0005F504F4F4C5F42554653495A45206D75AE
:1050F00073742062652062696767657220746861F5
:105100006E204D454D5F414C49474E4D454E540034
:1051100072656D5F6C656E203C206D61785F7531E6
:10512000365F7400706275665F616C6C6F633A2005
:105130007062756620712D3E7061796C6F616420BC
:1051400070726F7065726C7920616C69676E6564EE
:1051500000000000706275665F616C6C6F633A20DE
:10516000706275662D3E7061796C6F61642070723B
:105170006F7065726C7920616C69676E65640000A0
:10518000706275665F616C6C6F6365645F63757395
:10519000746F6D3A206261642070627566206C6184
:1051A00079657200706275665F7265616C6C6F63C1
:1051B0003A207020213D204E554C4C00706275669F
:1051C0005F7265616C6C6F633A2073616E6520700D
:1051D0002D3E74797065000067726F77203C206DFA
:1051E00061785F7531365F7400000000706275662B
:1051F0005F7265616C6C6F633A207120213D204EB7
:10520000554C4C00C1A1AFF2382008F0F1FD65818A
:105210002581206808B1FFF7E3FC00202060BDE88D
:10522000F08770B516460D46040009D1AFF2A023F1
:1052300040F23F22AFF24021AFF26C2008F0D8FDDF
:105240006DB164B1002D0CDA684282B2608990427F
:1052500008D2AFF2C42340F24722B3A110E00020ED
:1052600070BDAAB2207B616878B103280DD00228F6
:1052700013D0012811D0AFF2E82340F27722B2A177
:10528000AFF2B42008F0B4FD17E0481B04F110029F
:105290006060904208D261600FE0002D0BDA6089F7
:1052A00090420AD3481B606060892844608120894D
:1052B00028442081D3E7002EF4D1012070BD0022C4
:1052C000AFE70122ADE7002102E0491C006889B286
:1052D0000028FAD10846704710B5040014D008F031
:1052E000A6F9E189491CE18108F0A9F9E0890028C3
:1052F0000AD1AFF2643340F2393297A1AFF23030C5
:10530000BDE8104008F074BD10BD70B50D4608B181
:10531000002D0AD1AFF288334FF4537293A1AFF24C
:105320005030BDE8704008F063BD0446006820B10D
:1053300021892A8911442181F7E7208961898842DE
:1053400013D0AFF2B43340F2553296A1AFF28030B1
:1053500008F04EFD206840B1AFF2CC3340F2563237
:105360009CA1AFF2943008F043FD208929890844BC
:105370002081256070BD10B50C46FFF7C6FF2046A2
:10538000BDE81040A8E72DE9F0474FF000070C46B4
:1053900005003E466FF00F0904D01CB12889218911
:1053A000884205D2AFF218434FF46F728DA150E0DE
:1053B0006FF0050A68896189C01B891B884201DB7F
:1053C00088B200E080B28046606842468119686811
:1053D000384408F091FB07EB080087B206EB0800A1
:1053E00086B26889B84208D2AFF25C4340F2CD324F
:1053F00088A1AFF2244008F0FBFC6089B04208D2DB
:10540000AFF2744340F2CE3288A1AFF23C4008F0D4
:10541000EFFC6089B04201D8246800266889B84250
:1054200002D12D6800276DB1002C18D06089218928
:10543000884214D12068002811D0AFF2AC4340F26A
:10544000DD3217E0002C1ED0AFF2BC434FF4767271
:105450007DA1AFF2844008F0CBFC4846DFE685B181
:105460006889298988420CD1286850B1AFF2E0439D
:1054700040F2E23278A1AFF2A84008F0B9FC504601
:10548000CDE6002C96D10020C9E62DE9F04716465E
:1054900089464FF0000828B1B9F1000F08D0002765
:1054A00004462EE0AFF2185340F2FE3275A104E03C
:1054B000AFF2245340F2FF327AA1AFF2EC4008F091
:1054C00097FC0020ABE62BB16089984202D8181AED
:1054D00083B215E06089C01A85B2B54200D935465D
:1054E00060682A46C11809EB070008F005FB08EBC5
:1054F00005001FFA80F8781987B2701B86B2002366
:1055000024680EB1002CDED1404688E66D656D5FE3
:105510007472696D2072657475726E656420712095
:105520003D3D204E554C4C00696E6372656D656E55
:10553000745F6D61676E6974756465203C3D2070B1
:105540002D3E6C656E0000006261642070627566BD
:10555000207479706500000070627566207265665F
:10556000206F766572666C6F7700000028682021D6
:105570003D204E554C4C2920262620287420213DC4
:10558000204E554C4C29202870726F6772616D6DEA
:1055900065722076696F6C6174657320415049298A
:1055A00000000000702D3E746F745F6C656E203DCE
:1055B0003D20702D3E6C656E20286F66206C6173F7
:1055C00074207062756620696E20636861696E2957
:1055D00000000000702D3E6E657874203D3D204E29
:1055E000554C4C00706275665F636F70793A207439
:1055F0006172676574206E6F742062696720656EE2
:105600006F75676820746F20686F6C6420736F75A6
:10561000726365006F66667365745F746F203C3DEE
:1056200020705F746F2D3E6C656E00006F66667350
:1056300065745F66726F6D203C3D20705F66726FAF
:105640006D2D3E6C656E0000705F746F20213D20F3
:105650004E554C4C00000000706275665F636F70C1
:1056600079282920646F6573206E6F7420616C6CDB
:105670006F77207061636B657420717565756573F4
:1056800021000000706275665F636F70795F706102
:10569000727469616C3A20696E76616C696420622B
:1056A00075660000706275665F636F70795F706128
:1056B000727469616C3A20696E76616C6964206409
:1056C0006174617074720000704710B5040009D0F5
:1056D000606808B1FFF784FA2146BDE81040032056
:1056E000FFF702B910BD10B503E00468FFF7EDFF46
:1056F00020460028F9D110BD70B50446007D002871
:105700001AD00A2818D0012816D0606F002510B1D1
:10571000FFF766FA6567206FFFF7E5FF4FF0FF3090
:1057200025672086A06EFFF7DEFFE06EFFF7DBFF48
:10573000A566E566A4F8645070BD2DE9FC5FE14FF5
:105740004FF6FF7B4FF4FA7AF8684FF00009401CDF
:10575000F860B878401CB8700026BC693AE1207D3A
:10576000002806D1D8A34FF47C72E1A1EBA008F089
:105770003FFB207D012806D1D3A340F2F132F1A1F5
:10578000E6A008F035FB207D0A2806D1CEA340F222
:10579000F232F7A1E1A008F02BFB617FB8788142DB
:1057A00001D1E46816E160770025227DA846022A2F
:1057B00005D194F84200062801D3012560E094F851
:1057C00042000C2801D301254EE094F89510C9B190
:1057D000F348085C94F89410814202D2491C84F882
:1057E0009410C9B281423FD3204603F018FDD8BBC4
:1057F00084F8949094F89500072835D2401C84F8DA
:10580000950031E0B4F93010002901DB491C2186F4
:10581000E16E49B3B4F93010B4F94030994223DB5A
:10582000022A09D0E18FB4F93C2001EBE201DD4A04
:10583000105C8140A4F84010A4F83090B4F84800FF
:10584000B4F85C10884200D308464008A4F84A0027
:10585000618E0BEA4102904201D2A4F84A20A4F8DA
:105860004810204603F013FC207D062808D1A07EB6
:10587000C00605D5206AF968081A282800D96D1CC9
:10588000207A00072AD5207D042801D0072825D1B9
:10589000C548D4F89010D7F80CC00844B0FBFAF211
:1058A000206AACEB0000824203D24FF001086D1C6D
:1058B00014E094F8962042F29F4C12FB0CF201EB9C
:1058C000C201B1FBFAF1814208D2204603F073FC19
:1058D00020B994F89600401C84F89600206F68B1B7
:1058E000216AFA68521AB4F9401001EB4101B2EB97
:1058F000410F03D3FFF7F7FEC4F87090207D032813
:1059000002D0092807D00BE0206AF968081A282875
:1059100006D96D1C04E0206AF968081AF028F8D846
:10592000002D3DD02046D4F88C50FFF7E5FEB86935
:105930005EB1844206D164A340F289429BA177A064
:1059400008F056FAE068F0600AE0A04206D05EA3D4
:1059500040F28D42A0A171A008F04AFAE068B86157
:10596000B8F1000F09D0218BE08ACDE90001231D99
:105970002246616AE06C03F033FB2146D4F81080C4
:10598000E4680120FEF7B0FF87F8009015B36FF0D0
:105990000C014046A847387800287FF4DDAE19E0B6
:1059A0002646E468F07E401CC0B2F076317F884223
:1059B00010D386F81B9087F80090D6F8882032B173
:1059C00031463069904739780029E6D110B9304620
:1059D00003F0EFF9002C7FF4C2AE0025FC6932E041
:1059E000207D0A2806D038A340F2BD4285A14BA0F5
:1059F00008F0FEF9206AF968081AF02821D9204633
:105A0000FFF77AFEF8695DB1844206D12EA340F219
:105A1000CB4288A141A008F0EBF9E068E8600AE019
:105A2000A04206D028A340F2CF428CA13BA008F0B0
:105A3000DFF9E068F8612146E4680120FEF754FFD1
:105A400001E02546E468002CCAD1BDE8FC9F70B592
:105A5000050006D11CA340F24D128AA12FA008F028
:105A6000C7F9287D0526032804D0042802D007287A
:105A700016D106E0284602F065FC040006D12E751A
:105A800009E0284602F05EFC040002D0601C09D048
:105A900004E009202875284603F08BF9204670BDE4
:105AA000002070BDA87E40F00800A876F8E770B529
:105AB0000C4601460068A04202D1C0680860F0E0D0
:105AC000EDE00000C00200202E2E5C2E2E5C5468FB
:105AD00069726450617274795C6C7749505C73725E
